S00D000050495276302E7372656386
S113000010C01DC058C0ECC01AC019C018C017C019
S113001016C015C014C013C012C011C010C00FC048
S11300200EC011241FBECFEDCDBF10E0A0E6B0E09E
S113003001C01D92A436B107E1F71FD12FC1E0CF53
S1130040AAE3B0E08C9188608C93E7E3F0E08081D0
S11300508E7F808380818D7F80838C918F778C933A
S11300608C918E7F8C930895E5E5F0E08081806823
S1130070808380818460808391E0892F8A95F1F761
S113008080818068808380818B7F80839A95F1F75B
S11300908081877F80838081806180830895E5E506
S11300A0F0E08081806280830895E5E5F0E080815E
S11300B08F7D808308951F920F920FB60F921124A3
S11300C02F933F934F935F936F937F938F939F935C
S11300D0AF93BF93EF93FF93F894E7DF80916000B1
S11300E08130A9F5CA9927C0E1E6F0E080819181C9
S11300F001979183808380819181892B69F488EBB6
S11301009BE09183808332968081815080838081BB
S1130110882311F41092600083E58A95F1F7EBE3EC
S1130120F0E080818860808389EE8A95F1F7808190
S1130130877F80830BC0EBE3F0E08081886080835D
S113014089EE8A95F1F78081877F8083A8DF789490
S1130150FF91EF91BF91AF919F918F917F916F919B
S11301605F914F913F912F910F900FBE0F901F9071
S11301701895EBE3F0E08081806880838081816062
S11301808083E8E3F0E08081816080838081826005
S1130190808386EA8A95F1F7E6E3F0E09081808136
S11301A081FD02C095E004C0892F8095982F91703D
S11301B089B388230CF09EE1C89B9CE3EBE3F0E059
S11301C080818F77808380818E7F8083E8E3F0E075
S11301D080818E7F808380818D7F8083892F0895A5
S11301E01F920F920FB60F9211240F931F932F9308
S11301F03F934F935F936F937F938F939F93AF93AB
S1130200BF93EF93FF9351DF00E610E081E0F80124
S11302108083AFDF0D5F1F4FF801808340DFFF91C4
S1130220EF91BF91AF919F918F917F916F915F916A
S11302304F913F912F911F910F910F900FBE0F90EF
S11302401F901895E5E5F0E080818D7F80838081A3
S113025081608083E2E3F0E0808184608083E0E475
S1130260F0E0808184608083EBE5F0E08081806150
S113027080838081806280830895E2DEE3DF789466
S1130280F3DEA0E6B0E0FD01119288EB9BE09183E0
S11302908083139681E08C9302DFFFCFF894FFCF25
S9030000FC
